{
  "_format": "hh-sol-artifact-1",
  "contractName": "WavePortal",
  "sourceName": "contracts/WavePortal.sol",
  "abi": [
    {
      "inputs": [],
      "stateMutability": "payable",
      "type": "constructor"
    },
    {
      "anonymous": false,
      "inputs": [
        {
          "indexed": true,
          "internalType": "address",
          "name": "from",
          "type": "address"
        },
        {
          "indexed": false,
          "internalType": "string",
          "name": "message",
          "type": "string"
        },
        {
          "indexed": false,
          "internalType": "uint256",
          "name": "timestamp",
          "type": "uint256"
        }
      ],
      "name": "NewWave",
      "type": "event"
    },
    {
      "inputs": [
        {
          "internalType": "address",
          "name": "wallet",
          "type": "address"
        },
        {
          "components": [
            {
              "internalType": "address",
              "name": "_address",
              "type": "address"
            },
            {
              "internalType": "string",
              "name": "message",
              "type": "string"
            },
            {
              "internalType": "uint256",
              "name": "timestamp",
              "type": "uint256"
            }
          ],
          "internalType": "struct WavePortal.Wave",
          "name": "_wave",
          "type": "tuple"
        }
      ],
      "name": "addToMap",
      "outputs": [],
      "stateMutability": "nonpayable",
      "type": "function"
    },
    {
      "inputs": [],
      "name": "getAllWaves",
      "outputs": [
        {
          "components": [
            {
              "internalType": "address",
              "name": "_address",
              "type": "address"
            },
            {
              "internalType": "string",
              "name": "message",
              "type": "string"
            },
            {
              "internalType": "uint256",
              "name": "timestamp",
              "type": "uint256"
            }
          ],
          "internalType": "struct WavePortal.Wave[]",
          "name": "",
          "type": "tuple[]"
        }
      ],
      "stateMutability": "view",
      "type": "function"
    },
    {
      "inputs": [],
      "name": "getTotalWaves",
      "outputs": [
        {
          "internalType": "uint256",
          "name": "",
          "type": "uint256"
        }
      ],
      "stateMutability": "view",
      "type": "function"
    },
    {
      "inputs": [
        {
          "internalType": "address",
          "name": "_add",
          "type": "address"
        }
      ],
      "name": "getWavesPerWallet",
      "outputs": [
        {
          "components": [
            {
              "internalType": "address",
              "name": "_address",
              "type": "address"
            },
            {
              "internalType": "string",
              "name": "message",
              "type": "string"
            },
            {
              "internalType": "uint256",
              "name": "timestamp",
              "type": "uint256"
            }
          ],
          "internalType": "struct WavePortal.Wave[]",
          "name": "",
          "type": "tuple[]"
        }
      ],
      "stateMutability": "view",
      "type": "function"
    },
    {
      "inputs": [
        {
          "internalType": "string",
          "name": "_message",
          "type": "string"
        }
      ],
      "name": "wave",
      "outputs": [],
      "stateMutability": "nonpayable",
      "type": "function"
    },
    {
      "inputs": [
        {
          "internalType": "address",
          "name": "",
          "type": "address"
        },
        {
          "internalType": "uint256",
          "name": "",
          "type": "uint256"
        }
      ],
      "name": "waveMap",
      "outputs": [
        {
          "internalType": "address",
          "name": "_address",
          "type": "address"
        },
        {
          "internalType": "string",
          "name": "message",
          "type": "string"
        },
        {
          "internalType": "uint256",
          "name": "timestamp",
          "type": "uint256"
        }
      ],
      "stateMutability": "view",
      "type": "function"
    }
  ],
  "bytecode": "0x60806040526200004f6040518060400160405280601581526020017f4920616d206120736d61727420636f6e747261637400000000000000000000008152506200005560201b620009401760201c565b620001e9565b620000f5816040516024016200006c919062000162565b6040516020818303038152906040527f41304fac000000000000000000000000000000000000000000000000000000007bffffffffffffffffffffffffffffffffffffffffffffffffffffffff19166020820180517bffffffffffffffffffffffffffffffffffffffffffffffffffffffff8381831617835250505050620000f860201b60201c565b50565b60008151905060006a636f6e736f6c652e6c6f679050602083016000808483855afa5050505050565b60006200012e8262000186565b6200013a818562000191565b93506200014c818560208601620001a2565b6200015781620001d8565b840191505092915050565b600060208201905081810360008301526200017e818462000121565b905092915050565b600081519050919050565b600082825260208201905092915050565b60005b83811015620001c2578082015181840152602081019050620001a5565b83811115620001d2576000848401525b50505050565b6000601f19601f8301169050919050565b6115a180620001f96000396000f3fe608060405234801561001057600080fd5b50600436106100625760003560e01c8063342f0e1514610067578063449d46c0146100835780639a2cdc081461009f578063b5cc00e7146100bd578063bd43a908146100ed578063e8b4b8291461010b575b600080fd5b610081600480360381019061007c9190610daf565b61013d565b005b61009d60048036038101906100989190610e3f565b61021a565b005b6100a761049d565b6040516100b491906111e5565b60405180910390f35b6100d760048036038101906100d29190610d86565b6104e8565b6040516100e491906110c3565b60405180910390f35b6100f5610700565b60405161010291906110c3565b60405180910390f35b61012560048036038101906101209190610e03565b610851565b60405161013493929190611085565b60405180910390f35b600160008373ffffffffffffffffffffffffffffffffffffffff1673ffffffffffffffffffffffffffffffffffffffff16815260200190815260200160002081908060018154018082558091505060019003906000526020600020906003020160009091909190915060008201518160000160006101000a81548173ffffffffffffffffffffffffffffffffffffffff021916908373ffffffffffffffffffffffffffffffffffffffff1602179055506020820151816001019080519060200190610209929190610bd9565b506040820151816002015550505050565b600160008082825461022c91906112c7565b925050819055506102726040518060400160405280600b81526020017f2573206973207761766564000000000000000000000000000000000000000000815250336109d9565b600060405180606001604052803373ffffffffffffffffffffffffffffffffffffffff1681526020018381526020014281525090503373ffffffffffffffffffffffffffffffffffffffff167f6728ef66814a55b797863bf8ffcd954b19cbca4ed4f0e6cf04c980705fd82c3683426040516102ef929190611175565b60405180910390a2610301338261013d565b600281908060018154018082558091505060019003906000526020600020906003020160009091909190915060008201518160000160006101000a81548173ffffffffffffffffffffffffffffffffffffffff021916908373ffffffffffffffffffffffffffffffffffffffff1602179055506020820151816001019080519060200190610390929190610bd9565b5060408201518160020155505060006509184e72a0009050478111156103eb576040517f08c379a00000000000000000000000000000000000000000000000000000000081526004016103e2906111c5565b60405180910390fd5b60003373ffffffffffffffffffffffffffffffffffffffff168260405161041190611070565b60006040518083038185875af1925050503d806000811461044e576040519150601f19603f3d011682016040523d82523d6000602084013e610453565b606091505b5050905080610497576040517f08c379a000000000000000000000000000000000000000000000000000000000815260040161048e906111a5565b60405180910390fd5b50505050565b60006104e06040518060400160405280602081526020017f5765206861766520256420746f74616c206e756d626572206f66207761766573815250600054610a75565b600054905090565b60606000600160008473ffffffffffffffffffffffffffffffffffffffff1673ffffffffffffffffffffffffffffffffffffffff1681526020019081526020016000208054905090506105716040518060400160405280601f81526020017f57616c6c657420257320686173202573206e756d626572206f662077617665008152508483610b11565b600160008473ffffffffffffffffffffffffffffffffffffffff1673ffffffffffffffffffffffffffffffffffffffff168152602001908152602001600020805480602002602001604051908101604052809291908181526020016000905b828210156106f457838290600052602060002090600302016040518060600160405290816000820160009054906101000a900473ffffffffffffffffffffffffffffffffffffffff1673ffffffffffffffffffffffffffffffffffffffff1673ffffffffffffffffffffffffffffffffffffffff1681526020016001820180546106599061139b565b80601f01602080910402602001604051908101604052809291908181526020018280546106859061139b565b80156106d25780601f106106a7576101008083540402835291602001916106d2565b820191906000526020600020905b8154815290600101906020018083116106b557829003601f168201915b50505050508152602001600282015481525050815260200190600101906105d0565b50505050915050919050565b60606002805480602002602001604051908101604052809291908181526020016000905b8282101561084857838290600052602060002090600302016040518060600160405290816000820160009054906101000a900473ffffffffffffffffffffffffffffffffffffffff1673ffffffffffffffffffffffffffffffffffffffff1673ffffffffffffffffffffffffffffffffffffffff1681526020016001820180546107ad9061139b565b80601f01602080910402602001604051908101604052809291908181526020018280546107d99061139b565b80156108265780601f106107fb57610100808354040283529160200191610826565b820191906000526020600020905b81548152906001019060200180831161080957829003601f168201915b5050505050815260200160028201548152505081526020019060010190610724565b50505050905090565b6001602052816000526040600020818154811061086d57600080fd5b9060005260206000209060030201600091509150508060000160009054906101000a900473ffffffffffffffffffffffffffffffffffffffff16908060010180546108b79061139b565b80601f01602080910402602001604051908101604052809291908181526020018280546108e39061139b565b80156109305780601f1061090557610100808354040283529160200191610930565b820191906000526020600020905b81548152906001019060200180831161091357829003601f168201915b5050505050908060020154905083565b6109d68160405160240161095491906110e5565b6040516020818303038152906040527f41304fac000000000000000000000000000000000000000000000000000000007bffffffffffffffffffffffffffffffffffffffffffffffffffffffff19166020820180517bffffffffffffffffffffffffffffffffffffffffffffffffffffffff8381831617835250505050610bb0565b50565b610a7182826040516024016109ef929190611107565b6040516020818303038152906040527f319af333000000000000000000000000000000000000000000000000000000007bffffffffffffffffffffffffffffffffffffffffffffffffffffffff19166020820180517bffffffffffffffffffffffffffffffffffffffffffffffffffffffff8381831617835250505050610bb0565b5050565b610b0d8282604051602401610a8b929190611175565b6040516020818303038152906040527f9710a9d0000000000000000000000000000000000000000000000000000000007bffffffffffffffffffffffffffffffffffffffffffffffffffffffff19166020820180517bffffffffffffffffffffffffffffffffffffffffffffffffffffffff8381831617835250505050610bb0565b5050565b610bab838383604051602401610b2993929190611137565b6040516020818303038152906040527f07c81217000000000000000000000000000000000000000000000000000000007bffffffffffffffffffffffffffffffffffffffffffffffffffffffff19166020820180517bffffffffffffffffffffffffffffffffffffffffffffffffffffffff8381831617835250505050610bb0565b505050565b60008151905060006a636f6e736f6c652e6c6f679050602083016000808483855afa5050505050565b828054610be59061139b565b90600052602060002090601f016020900481019282610c075760008555610c4e565b82601f10610c2057805160ff1916838001178555610c4e565b82800160010185558215610c4e579182015b82811115610c4d578251825591602001919060010190610c32565b5b509050610c5b9190610c5f565b5090565b5b80821115610c78576000816000905550600101610c60565b5090565b6000610c8f610c8a84611225565b611200565b905082815260208101848484011115610ca757600080fd5b610cb2848285611359565b509392505050565b600081359050610cc98161153d565b92915050565b600082601f830112610ce057600080fd5b8135610cf0848260208601610c7c565b91505092915050565b600060608284031215610d0b57600080fd5b610d156060611200565b90506000610d2584828501610cba565b600083015250602082013567ffffffffffffffff811115610d4557600080fd5b610d5184828501610ccf565b6020830152506040610d6584828501610d71565b60408301525092915050565b600081359050610d8081611554565b92915050565b600060208284031215610d9857600080fd5b6000610da684828501610cba565b91505092915050565b60008060408385031215610dc257600080fd5b6000610dd085828601610cba565b925050602083013567ffffffffffffffff811115610ded57600080fd5b610df985828601610cf9565b9150509250929050565b60008060408385031215610e1657600080fd5b6000610e2485828601610cba565b9250506020610e3585828601610d71565b9150509250929050565b600060208284031215610e5157600080fd5b600082013567ffffffffffffffff811115610e6b57600080fd5b610e7784828501610ccf565b91505092915050565b6000610e8c8383611002565b905092915050565b610e9d8161131d565b82525050565b610eac8161131d565b82525050565b6000610ebd82611266565b610ec78185611289565b935083602082028501610ed985611256565b8060005b85811015610f155784840389528151610ef68582610e80565b9450610f018361127c565b925060208a01995050600181019050610edd565b50829750879550505050505092915050565b6000610f3282611271565b610f3c81856112a5565b9350610f4c818560208601611368565b610f558161148b565b840191505092915050565b6000610f6b82611271565b610f7581856112b6565b9350610f85818560208601611368565b610f8e8161148b565b840191505092915050565b6000610fa6602a836112b6565b9150610fb18261149c565b604082019050919050565b6000610fc9602b836112b6565b9150610fd4826114eb565b604082019050919050565b6000610fec60008361129a565b9150610ff78261153a565b600082019050919050565b600060608301600083015161101a6000860182610e94565b50602083015184820360208601526110328282610f27565b91505060408301516110476040860182611052565b508091505092915050565b61105b8161134f565b82525050565b61106a8161134f565b82525050565b600061107b82610fdf565b9150819050919050565b600060608201905061109a6000830186610ea3565b81810360208301526110ac8185610f60565b90506110bb6040830184611061565b949350505050565b600060208201905081810360008301526110dd8184610eb2565b905092915050565b600060208201905081810360008301526110ff8184610f60565b905092915050565b600060408201905081810360008301526111218185610f60565b90506111306020830184610ea3565b9392505050565b600060608201905081810360008301526111518186610f60565b90506111606020830185610ea3565b61116d6040830184611061565b949350505050565b6000604082019050818103600083015261118f8185610f60565b905061119e6020830184611061565b9392505050565b600060208201905081810360008301526111be81610f99565b9050919050565b600060208201905081810360008301526111de81610fbc565b9050919050565b60006020820190506111fa6000830184611061565b92915050565b600061120a61121b565b905061121682826113cd565b919050565b6000604051905090565b600067ffffffffffffffff8211156112405761123f61145c565b5b6112498261148b565b9050602081019050919050565b6000819050602082019050919050565b600081519050919050565b600081519050919050565b6000602082019050919050565b600082825260208201905092915050565b600081905092915050565b600082825260208201905092915050565b600082825260208201905092915050565b60006112d28261134f565b91506112dd8361134f565b9250827fffffffffffffffffffffffffffffffffffffffffffffffffffffffffffffffff03821115611312576113116113fe565b5b828201905092915050565b60006113288261132f565b9050919050565b600073ffffffffffffffffffffffffffffffffffffffff82169050919050565b6000819050919050565b82818337600083830152505050565b60005b8381101561138657808201518184015260208101905061136b565b83811115611395576000848401525b50505050565b600060028204905060018216806113b357607f821691505b602082108114156113c7576113c661142d565b5b50919050565b6113d68261148b565b810181811067ffffffffffffffff821117156113f5576113f461145c565b5b80604052505050565b7f4e487b7100000000000000000000000000000000000000000000000000000000600052601160045260246000fd5b7f4e487b7100000000000000000000000000000000000000000000000000000000600052602260045260246000fd5b7f4e487b7100000000000000000000000000000000000000000000000000000000600052604160045260246000fd5b6000601f19601f8301169050919050565b7f4661696c656420746f207769746864726177206d6f6e65792066726f6d20746860008201527f6520636f6e747261637400000000000000000000000000000000000000000000602082015250565b7f547279696e6720746f207769746864726177206d6f7265206d6f6e657920746860008201527f616e20796f752068617665000000000000000000000000000000000000000000602082015250565b50565b6115468161131d565b811461155157600080fd5b50565b61155d8161134f565b811461156857600080fd5b5056fea2646970667358221220b2cae399a2466791f8ca079a7f6396d26a74a321784192d86c96d1b37cba8fb364736f6c63430008040033",
  "linkReferences": {},
  "deployedLinkReferences": {}
}