{
  "_format": "hh-sol-artifact-1",
  "contractName": "WavePortal",
  "sourceName": "contracts/WavePortal.sol",
  "abi": [
    {
      "inputs": [],
      "stateMutability": "nonpayable",
      "type": "constructor"
    },
    {
      "inputs": [
        {
          "internalType": "address",
          "name": "wallet",
          "type": "address"
        }
      ],
      "name": "addToMap",
      "outputs": [],
      "stateMutability": "nonpayable",
      "type": "function"
    },
    {
      "inputs": [],
      "name": "getTotalWaves",
      "outputs": [
        {
          "internalType": "uint256",
          "name": "",
          "type": "uint256"
        }
      ],
      "stateMutability": "view",
      "type": "function"
    },
    {
      "inputs": [
        {
          "internalType": "address",
          "name": "_add",
          "type": "address"
        }
      ],
      "name": "getWavesWallet",
      "outputs": [
        {
          "internalType": "uint256",
          "name": "",
          "type": "uint256"
        }
      ],
      "stateMutability": "view",
      "type": "function"
    },
    {
      "inputs": [],
      "name": "wave",
      "outputs": [],
      "stateMutability": "nonpayable",
      "type": "function"
    },
    {
      "inputs": [
        {
          "internalType": "address",
          "name": "",
          "type": "address"
        }
      ],
      "name": "waveMap",
      "outputs": [
        {
          "internalType": "uint256",
          "name": "",
          "type": "uint256"
        }
      ],
      "stateMutability": "view",
      "type": "function"
    }
  ],
  "bytecode": "0x608060405234801561001057600080fd5b506100596040518060400160405280601581526020017f4920616d206120736d61727420636f6e7472616374000000000000000000000081525061005e60201b6102ec1760201c565b6101e1565b6100fa81604051602401610072919061015f565b6040516020818303038152906040527f41304fac000000000000000000000000000000000000000000000000000000007bffffffffffffffffffffffffffffffffffffffffffffffffffffffff19166020820180517bffffffffffffffffffffffffffffffffffffffffffffffffffffffff83818316178352505050506100fd60201b60201c565b50565b60008151905060006a636f6e736f6c652e6c6f679050602083016000808483855afa5050505050565b600061013182610181565b61013b818561018c565b935061014b81856020860161019d565b610154816101d0565b840191505092915050565b600060208201905081810360008301526101798184610126565b905092915050565b600081519050919050565b600082825260208201905092915050565b60005b838110156101bb5780820151818401526020810190506101a0565b838111156101ca576000848401525b50505050565b6000601f19601f8301169050919050565b610863806101f06000396000f3fe608060405234801561001057600080fd5b50600436106100575760003560e01c8063301938bb1461005c5780636fe15b441461008c5780639a2cdc0814610096578063d409d421146100b4578063ed7eb8e1146100e4575b600080fd5b6100766004803603810190610071919061059a565b610100565b60405161008391906106da565b60405180910390f35b6100946101cd565b005b61009e610230565b6040516100ab91906106da565b60405180910390f35b6100ce60048036038101906100c9919061059a565b61027b565b6040516100db91906106da565b60405180910390f35b6100fe60048036038101906100f9919061059a565b610293565b005b600080600160008473ffffffffffffffffffffffffffffffffffffffff1673ffffffffffffffffffffffffffffffffffffffff1681526020019081526020016000205490506101856040518060400160405280601f81526020017f57616c6c657420257320686173202573206e756d626572206f662077617665008152508483610385565b600160008473ffffffffffffffffffffffffffffffffffffffff1673ffffffffffffffffffffffffffffffffffffffff16815260200190815260200160002054915050919050565b60016000808282546101df9190610711565b925050819055506102256040518060400160405280600b81526020017f257320697320776176656400000000000000000000000000000000000000000081525033610424565b61022e33610293565b565b60006102736040518060400160405280602081526020017f5765206861766520256420746f74616c206e756d626572206f662077617665738152506000546104c0565b600054905090565b60016020528060005260406000206000915090505481565b60018060008373ffffffffffffffffffffffffffffffffffffffff1673ffffffffffffffffffffffffffffffffffffffff16815260200190815260200160002060008282546102e29190610711565b9250508190555050565b61038281604051602401610300919061061a565b6040516020818303038152906040527f41304fac000000000000000000000000000000000000000000000000000000007bffffffffffffffffffffffffffffffffffffffffffffffffffffffff19166020820180517bffffffffffffffffffffffffffffffffffffffffffffffffffffffff838183161783525050505061055c565b50565b61041f83838360405160240161039d9392919061066c565b6040516020818303038152906040527f07c81217000000000000000000000000000000000000000000000000000000007bffffffffffffffffffffffffffffffffffffffffffffffffffffffff19166020820180517bffffffffffffffffffffffffffffffffffffffffffffffffffffffff838183161783525050505061055c565b505050565b6104bc828260405160240161043a92919061063c565b6040516020818303038152906040527f319af333000000000000000000000000000000000000000000000000000000007bffffffffffffffffffffffffffffffffffffffffffffffffffffffff19166020820180517bffffffffffffffffffffffffffffffffffffffffffffffffffffffff838183161783525050505061055c565b5050565b61055882826040516024016104d69291906106aa565b6040516020818303038152906040527f9710a9d0000000000000000000000000000000000000000000000000000000007bffffffffffffffffffffffffffffffffffffffffffffffffffffffff19166020820180517bffffffffffffffffffffffffffffffffffffffffffffffffffffffff838183161783525050505061055c565b5050565b60008151905060006a636f6e736f6c652e6c6f679050602083016000808483855afa5050505050565b60008135905061059481610816565b92915050565b6000602082840312156105ac57600080fd5b60006105ba84828501610585565b91505092915050565b6105cc81610767565b82525050565b60006105dd826106f5565b6105e78185610700565b93506105f78185602086016107a3565b61060081610805565b840191505092915050565b61061481610799565b82525050565b6000602082019050818103600083015261063481846105d2565b905092915050565b6000604082019050818103600083015261065681856105d2565b905061066560208301846105c3565b9392505050565b6000606082019050818103600083015261068681866105d2565b905061069560208301856105c3565b6106a2604083018461060b565b949350505050565b600060408201905081810360008301526106c481856105d2565b90506106d3602083018461060b565b9392505050565b60006020820190506106ef600083018461060b565b92915050565b600081519050919050565b600082825260208201905092915050565b600061071c82610799565b915061072783610799565b9250827fffffffffffffffffffffffffffffffffffffffffffffffffffffffffffffffff0382111561075c5761075b6107d6565b5b828201905092915050565b600061077282610779565b9050919050565b600073ffffffffffffffffffffffffffffffffffffffff82169050919050565b6000819050919050565b60005b838110156107c15780820151818401526020810190506107a6565b838111156107d0576000848401525b50505050565b7f4e487b7100000000000000000000000000000000000000000000000000000000600052601160045260246000fd5b6000601f19601f8301169050919050565b61081f81610767565b811461082a57600080fd5b5056fea2646970667358221220e65c88e27a28f58816eea0e767a612595acea0cce9e0ea1abf16ccaeeb21caab64736f6c63430008040033",
  "linkReferences": {},
  "deployedLinkReferences": {}
}